:020000040800F2
:1000000000200020D10100081D0200081D02000888
:100010001D0200081D0200081D020008000000006B
:100020000000000000000000000000001D020008A9
:100030001D020008000000001D0200081D0200084B
:100040001D0200081D0200081D0200081D02000814
:100050001D0200081D0200081D0200081D02000804
:100060001D0200081D0200081D0200081D020008F4
:100070001D0200081D0200081D0200081D020008E4
:100080001D0200081D0200081D02000800000000FB
:100090000000000000000000000000001D02000839
:1000A0001D0200081D0200081D0200081D020008B4
:1000B000490400081D020008000000001D0200089D
:1000C0001D02000800000000000000001D020008E2
:1000D000000000001D0200081D02000800000000D2
:1000E0001D0200081D0200081D020008000000009B
:1000F0000000000000000000000000000000000000
:1001000000000000000000000000000000000000EF
:1001100000000000000000001D0200081D02000891
:1001200000000000000000000000000000000000CF
:1001300000000000000000000000000000000000BF
:1001400000000000000000000000000000000000AF
:10015000000000000000000000000000000000009F
:10016000000000000000000000000000000000008F
:10017000000000000000000000000000000000007F
:10018000000000000000000000000000000000006F
:10019000000000000000000000000000000000005F
:1001A000000000000000000000000000000000004F
:1001B000000000000000000000000000000000003F
:1001C0000000000000000000000000005FF808F1DF
:1001D000002100F004B80C4B5B58435004310B482D
:1001E0000B4B42189A42FFF4F6AF0A4A00F003B8EC
:1001F000002342F8043B084B9A42FFF4F9AF00F0A9
:100200000FF800F0D3F870473B050008000000200D
:10021000040000200400002008000020FFF7FEBFBB
:1002200080B500AF174B174A126842F001021A60FE
:10023000144A144B5968144B0B405360114A114B2C
:100240001B6823F0847323F4803313600D4B0D4A35
:10025000126822F480221A600A4B0A4A526822F479
:10026000FE025A60074B4FF41F029A60054B4FF095
:100270000002DA6200F00CF8044B4FF000629A6062
:1002800080BD00BF001002400000FFF800ED00E05C
:1002900080B500AF00F002F880BD00BF80B483B02D
:1002A00000AF4FF000037B604FF000033B60314B29
:1002B000304A126842F480321A602E4B1B6803F4F5
:1002C00000333B607B6803F101037B603B68002BDC
:1002D00003D17B68B3F5A06FEFD1264B1B6803F405
:1002E0000033002B03D04FF001033B6002E04FF0DE
:1002F00000033B603B68012B37D11E4B1D4A5268FF
:100300005A601C4B1B4A52685A601A4B194A526871
:100310005A60184B174A526822F47C125A60154BE7
:10032000144A526842F498125A60124B114A1268E9
:1003300042F080721A6000BF0E4B1B6803F000731E
:10034000002BF9D00B4B0B4A526822F003025A6083
:10035000084B084A526842F002025A6000BF054B3F
:100360005B6803F00C03082BF9D107F10C07BD46BD
:1003700080BC70470010024080B483B000AF0346D9
:10038000FB71094B97F907204FEA5212F97901F0F6
:100390001F014FF0010000FA01F143F8221007F1AC
:1003A0000C07BD4680BC704700E100E080B500AF9F
:1003B000214B214A926942F010029A611E4B1E4A5B
:1003C000D26942F00102DA611C4B1C4A526822F0E9
:1003D000FF025A60194B194A526842F011025A60E2
:1003E0004FF08043164A1168164AA2FB01024FEAF9
:1003F000921292B202F1FF3292B21A854FF080430C
:100400004FF47A729A854FF080434FF08042928980
:1004100092B242F0010292B29A814FF080434FF0C3
:100420008042128892B242F0010292B21A804FF0DA
:100430001C00FFF7A1FFFEE7001002400010014082
:1004400000000020D34D621080B400AF4FF0804315
:100450004FF08042128A92B222F0010292B21A82C6
:10046000124B1B781A4602F00102002A0CBF002230
:100470000122D2B203F10103D9B20C4B1970002A48
:1004800008D00B4B4FF480721A61094B4FF0007289
:100490001A6107E0064B4FF400721A61044B4FF0EB
:1004A00080721A61BD4680BC704700BF0400002006
:0404B00000100140F7
:04053B0000366E0117
:04000005080001D11D
:00000001FF
